:100000000C9434000C9451000C9451000C94510049
:100010000C9451000C9451000C9451000C9451001C
:100020000C9451000C9451000C9451000C94D50088
:100030000C94CB000C94A9000C94C1000C94B70054
:100040000C94DF000C9451000C9451000C9451005E
:100050000C9451000C946F000C9451000C945100BE
:100060000C9451000C94510011241FBECFEFD8E026
:10007000DEBFCDBF11E0A0E0B1E0EEEDF1E002C0E7
:1000800005900D92A230B107D9F721E0A2E0B1E0CE
:1000900001C01D92A630B207E1F70E9490000C94B7
:1000A000ED000C94000080E480937C008BE9809349
:1000B0007A000895EEE7F0E0908121E030E001C0A1
:1000C000220F8A95EAF7292B20830895ECE7F0E0C8
:1000D0009081907F90839081892B808308951F92D7
:1000E0000F920FB60F9211248F9381E0809300013D
:1000F0008F910F900FBE0F901F90189510920001D6
:1001000080917A00806480937A0080910001882336
:10011000E1F39091780080917900892B90E0089527
:100120008FEF84B90E94530080E00E945A0080E063
:100130000E9466007894C0E20E947E008B3F910589
:1001400030F0C5B90E947E008B3F9105D0F715B8FD
:10015000F3CF1F920F920FB60F921124109203014A
:10016000109202010F900FBE0F901F9018951F92D2
:100170000F920FB60F9211240F900FBE0F901F9089
:1001800018951F920F920FB60F9211240F900FBE69
:100190000F901F9018951F920F920FB60F92112477
:1001A0000F900FBE0F901F9018951F920F920FB6D1
:1001B0000F9211240F900FBE0F901F9018951F9251
:1001C0000F920FB60F9211241092050110920401A4
:0E01D0000F900FBE0F901F901895F894FFCF60
:0201DE0001001E
:00000001FF
